:06000000020099020B8FC3
:03000B00020E40A2
:03001300020BE2FB
:01001B0032B2
:03002300020AF7D7
:03002B0002184F69
:01003300329A
:03003B00020C357F
:03004300020AB8F6
:01004B003282
:03005300020B435A
:01005B003272
:03006300021791F0
:03006600020C8900
:02006900E4733E
:10006B00E58124FCC3C8C0E0C082E608467006E503
:10007B00824583601218E58296F58208E5839642E5
:10008B008208E5F0964582D082C8D0E0C8227581FF
:0B009B0031121D4BE58260030200667D
:1000A600791DE94400601B7A01901F9F784A75A06C
:1000B60001E493F2A308B8000205A0D9F4DAF275B8
:0200C600A0FF99
:0600C800E478FFF6D8FD0C
:1000CE007800E84400600A799475A000E4F309D83A
:1000DE00FC78B6E84400600C7901900094E4F0A33B
:0400EE00D8FCD9FA67
:0B00F2009000E8E4F0A3F0A3F0A3F0FE
:0E00FE007808E4F608F608F608F6780C7600A6
:02010C00C2022D
:02010E00C20429
:02011000C20526
:0301120002006682
:100116009000EEE4F075820F120DA3900001120F0D
:10012600AE9000EE7401F075820F120DA3900001DF
:10013600120FAE9000EEE4F075820F120DA3900040
:1001460064020FAEE5829000BAF0E0FF9000EE7414
:10015600015FF0758221C007120DA3D007EFC3130C
:100166009000BAF0E0FF9000EE74015FF075820B2C
:10017600C007120DA3D007EFC3139000BAF0E0FF3B
:100186009000EE74015FF075821FC007120DA3D0B8
:1001960007EFC3139000BAF0E09000EE5401F0753B
:1001A600821E120DA3020116E5829000BCF090009B
:1001B600BBE09000EEF075820E120DA39000BCE03D
:1001C600FFC4540FF582C00712014AD0078F82027E
:1001D600014AE5829000BDF0E0FF9000BBE4F08F9D
:1001E600820201AEE5829000BEF0E0FF9000BB7493
:1001F60001F08F820201AE9000F874A4F07400A39F
:10020600F0E4A3F09000FB7410F0E4A3F0900094E7
:1002160075F0001216589000EFE4F09000F074109C
:10022600F0E4A3F09000A475F000020E187F00BF62
:100236000200400122EF901E3C93FE430680900090
:10024600BBE4F08E82C0071201AED007EF75F01046
:10025600A42494FD740035F0FE8D038E047A00BA52
:1002660010005045EA2DF8E43EF988828983E06063
:100276000EEA2BF582E43CF583E0F87900800478F9
:100286002079009000BB7401F08882C007C006C0C8
:1002960005C004C003C0021201AED002D003D004D0
:1002A600D005D006D0070A80B60F0202359000B8F6
:1002B600E4F09000B7F09000B9F09000B47408F044
:1002C6009000ED7401F075820E120C9C9000ED7496
:1002D60001F075820F120C9C9000ED7401F075828E
:1002E60021120C9C9000ED7401F075820B120C9C8F
:1002F6009000ED7401F075821F120C9C9000ED7455
:1003060001F075821E120C9C900032E4F5F0120E7C
:10031600FD9000EEE4F075820E120DA39000EEE45F
:10032600F075820F120DA375820312014A90119483
:10033600120FAE75820312014A901194120FAE7518
:10034600820312014A900096120FAE7582021201C4
:100356004A9000B4E04420FF9000BBE4F08F821284
:1003660001AE9000B57404F012043E1203859000AD
:10037600B67402F09000BBE4F07582060201AE90FE
:1003860000BBE4F07582011201AE9007D0120FAEE9
:100396009000EFE4F09000F07420F0E4A3F09000F9
:1003A6009475F000120E189000B8E4F09000B7F0C3
:1003B600229000BBE4F07582021201AE9007D012C3
:1003C6000FAE9000B8E4F09000B7F022E5829000FE
:1003D600C6F0E0FFBF100040069000C6740FF09014
:1003E60000C5E0FFBF020040069000C57401F09012
:1003F60000C5E0FF901E3C93FE9000C6E0FD2E4433
:1004060080FE9000BBE4F08E82C007C0051201AEEC
:10041600D005D0079000B7EDF09000B8EFF022902D
:1004260000B5E053E0FBF09000B5E04408FF900013
:10043600BBE4F08F820201AE9000B5E043E004F029
:100446009000B5E04408FF9000BBE4F08F82020103
:10045600AE9000B5E053E0FDF09000B5E04408FF33
:100466009000BBE4F08F820201AE9000B5E043E05D
:1004760002F09000B5E04408FF9000BBE4F08F82E4
:100486000201AE9000B5E053E0FEF09000B5E04406
:1004960008FF9000BBE4F08F820201AE9000B5E049
:1004A60043E001F09000B5E04408FF9000BBE4F0A3
:1004B6008F820201AE9000BBE4F07582180201AE95
:1004C6009000BBE4F075821C0201AE9000B6E043DA
:1004D600E002F09000B6E04404FF9000BBE4F08F29
:1004E600820201AE9000B6E053E0FDF09000B6E067
:1004F6004404FF9000BBE4F08F820201AE9000B688
:10050600E043E001F09000B6E04404FF9000BBE455
:10051600F08F820201AE9000B6E053E0FEF090004C
:10052600B6E04404FF9000BBE4F08F820201AEE522
:10053600829000D7F0E053E007F09000D7E0C403C4
:1005460054F8FF4307409000BBE4F08F821201AEDF
:100556009000D4E0FDA3E0FEA3E0FF7C00BC080011
:100566005030EC2DF9E43EFA8F0389828A838BF0B2
:10057600121B51F99000BB7401F08982C007C006B6
:10058600C005C0041201AED004D005D006D0070CB9
:1005960080CB229000B97401F0229000B9E0600887
:1005A6009000B9E4F0020233229000B9E0F582220D
:1005B600E5829000DAF0E0FFBF08149000B7E0FE95
:1005C600E0700302071CEE149000B7F002071CBF90
:1005D6000D089000B7E4F002071CBF0A169000B899
:1005E600E0FEBE0200400302071C9000B8EE04F0D5
:1005F60002071CBF0C239000EFE4F09000F074207B
:10060600F0E4A3F090009475F000120E189000B874
:10061600E4F09000B7F002071CBF0902800302064F
:10062600C39000B7E0FFBF100040159000B7E4F09C
:100636009000B8E0FFBF020050069000B8EF04F04B
:100646009000B8E0FFBF020040091201FD9000B81B
:100656007401F09000B7E0FFFD7E0074042DFDE408
:100666003EFEC0077404C0E0E4C0E08D828E8312B3
:100676001C89AD82AE8315811581D007ED2D25E04D
:10068600FDC39FFF9000B7E0FEBE100040030207C7
:100696001C8F051FED700302071C9000B8E075F073
:1006A60010A42494FC740035F0FD9000B7EE04F01D
:1006B600EE2CF582E43DF5837420F080C79000B7F8
:1006C600E0FFBF100040159000B7E4F09000B8E0DE
:1006D600FFBF020050069000B8EF04F09000B8E0AB
:1006E600FFBF020040091201FD9000B87401F090AE
:1006F60000B8E075F010A42494FE740035F0FF9065
:1007060000B7E0FD04F0ED2EFEE43FFF9000DAE0D6
:10071600FD8E828F83F09000B9E0700302023322CF
:10072600AFF0AE83E5829000DBF0EEA3F0EFA3F02E
:100736009000DBE0FDA3E0FEA3E0FF9000DBE0F528
:10074600F0A3E045F0604E8D828E838FF0121B5130
:1007560060439000B97401F08D828E838FF0121B76
:1007660051FC60230DBD00010E9000DBEDF0EEA301
:10077600F0EFA3F08C82C007C006C0051205B6D004
:1007860005D006D00780D19000DBEDF0EEA3F0EFA8
:06079600A3F00205A02201
:10079C00AFF0AE83E5829000E4F0EEA3F0EFA3F0AF
:1007AC009000E7E4F09000E4E0FDA3E0FEA3E0FF9E
:1007BC008D828E838FF0121B51FCBC3000402BECD1
:1007CC0024C640269000E7E075F00AA4F00DBD00A9
:1007DC00010E9000E4EDF0EEA3F0EFA3F0EC24D0CA
:1007EC00FC9000E7E0FB2CF080C69000E4EDF0EE0E
:1007FC00A3F0EFA3F09000E7E0F582229000ED74F7
:10080C0001F0758222120C9C90014DE0900100F0D9
:10081C00E4A3F07582221217B81202B3901E407531
:10082C00F080020726121A79E5827003020A23125D
:10083C000599121A79E5827003020A08121A80AF20
:10084C008290014CE0FE30E7030209DEEE7079BFC6
:10085C00200E75820C1205B690014C74FFF080D2FC
:10086C00BF21139000C5E4F07582001203D29001F1
:10087C004C74FFF080BCBF2D0B12042590014C74FE
:10088C00FFF080AEBF2B0B12043E90014C74FFF0B6
:10089C0080A0BF3D1B8E0590014CEE04F0ED33950E
:1008AC00E0FCED24DEF582EC3400F583EFF0808281
:1008BC0075825CC0071205B6D0078F821205B69000
:1008CC00014C74FFF002083EBF3000500302097166
:1008DC00EF24C650030209718E0590014CEE04F012
:1008EC00ED3395E0FEED24DEF582EE3400F583EF7A
:1008FC00F090014CE0FEC374838EF063F08095F0B1
:10090C00503C1E1EEE3395E0FDEE24DEF582ED34F8
:10091C0000F583E0FEBE2C269000DF75F000C007CA
:10092C0012079CAE82D0078F05ED24D09000C5F045
:10093C008E821203D290014C74FFF002083E90019B
:10094C004CE0FEC364809485500302083E75825CC3
:10095C001205B69000DE75F00012072690014C745B
:10096C00FFF002083EBF2C4990014CE0FEC374819D
:10097C008EF063F08095F050389000F4742CF09069
:10098C0000DE75F000C0071215EFAC82AD83AEF03F
:10099C00D007EC4D701B90014CE0FE04F0EE33954B
:1009AC00E0FDEE24DEF582ED3400F583EFF0020875
:1009BC003E75825CC0071205B69000DE75F0001221
:1009CC000726D0078F821205B690014C74FFF002F7
:1009DC00083EBF5C1F9000EFE4F09000F07406F04E
:1009EC00E4A3F09000DE75F000120E1890014CE4B8
:1009FC00F002083E8F821205B602083E1205A012C4
:100A0C000EC0AC82AD83AEF0FF9000E8ECF0EDA32D
:100A1C00F0EEA3F0EFA3F0120EC0AC82AD83AEF0FB
:100A2C00FF9000E8E0F8A3E0F9A3E0FAA3E0FBEC08
:100A3C00C398FCED99FDEE9AFEEF9BFFC374989C56
:100A4C00743A9DE49EE49F50089000EC74FFF08093
:100A5C001BC374109C74279DE49EE49F5008900067
:100A6C00EC74C0F080069000EC7480F090014DE0C6
:100A7C00FF9000ECE0FEEFB506012290014DEEF088
:100A8C00BEFF0B9000EDE4F0758222020C9C9000EE
:100A9C00ED7401F0758222120C9C90014DE09001D6
:0B0AAC0000F0E4A3F07582220217B8EE
:100AB800C021C0E0C0F0C082C083C007C006C00526
:100AC800C004C003C002C001C000C0D075D000126D
:100AD80014ACD0D0D000D001D002D003D004D005BF
:100AE800D006D007D083D082D0F0D0E0D02132C059
:100AF80021C0E0C0F0C082C083C007C006C005C0E6
:100B080004C003C002C001C000C0D075D000309836
:100B180005121B6DC298309905121BADC299D0D031
:100B2800D000D001D002D003D004D005D006D00721
:100B3800D083D082D0F0D0E0D02132C021C0E0C034
:100B4800F0C082C083C007C006C005C004C003C08F
:100B580002C001C000C0D075D00030C005121BFB18
:100B6800C2C030C105121C3BC2C1D0D0D000D001D8
:100B7800D002D003D004D005D006D007D083D082CD
:100B8800D0F0D0E0D02132C021C0E0C0F0C082C097
:100B980083C007C006C005C004C003C002C001C0AE
:100BA80000C0D075D00090015BE0FEA3E0FFC00755
:100BB800C0068E828F83120069D006D007D0D0D0AD
:100BC80000D001D002D003D004D005D006D007D081
:100BD80083D082D0F0D0E0D02132C021C0E0C0F074
:100BE800C082C083C007C006C005C004C003C002DD
:100BF800C001C000C0D075D00090015DE0FEA3E048
:100C0800FFC007C0068E828F83120069D006D00706
:100C1800D0D0D000D001D002D003D004D005D00667
:100C2800D007D083D082D0F0D0E0D02132C021C00C
:100C3800E0C0F0C082C083C007C006C005C004C0C1
:100C480003C002C001C000C0D075D00090014EE0C2
:100C5800FEA3E04E600E90014EE0F8A3E0F5838815
:100C680082120069D0D0D000D001D002D003D004C5
:100C7800D005D006D007D083D082D0F0D0E0D021E4
:100C880032120FE912080812083112194980F87552
:030C9800820022B5
:100C9C00E582FF901EAD93FEEF901E8593FF7001D1
:100CAC00229000EDE0FD701BBF0209EEF4FC5292A5
:100CBC00EC529322BF0402800122EEF4FC5296EC1B
:100CCC00529722BD0214BF0207EE4292EE429322CB
:100CDC00BF0439EE4296EE429722BD0116BF0208C0
:100CEC00EEF45292EE429322BF0421EEF45296EEB1
:100CFC00429722BD0316BF0208EE4292EEF45293C5
:100D0C0022BF0408EE4296EEF4FE529722AF82BF49
:100D1C000102800FBF02028013BF03028017BF04C1
:100D2C0025801BE5C620E21E539DFB22E5C620E371
:100D3C0015539DF722E5C630E20C539DFB22E5C608
:100D4C0030E303539DF722E582FF901E5D93FEEF87
:100D5C00901EAD93FDEF901E8593FF7003F58222DC
:100D6C00EE600D8E82C007C005120D19D005D0079C
:100D7C007E00BF0202800ABF03028009BF040C8000
:100D8C0008AE908006AEA08002AEB0ED5E60047539
:100D9C0082012275820022E582FF901E5D93FEEF98
:100DAC00901EAD93FDEF901E8593FFEE600D8E822D
:100DBC00C007C005120D19D005D007A2AFE433FE51
:100DCC00C2AFBF0202800ABF03028017BF04368085
:100DDC00249000EEE07007EDF4FF52908027ED4276
:100DEC009080229000EEE07007EDF4FF52A0801589
:100DFC00ED42A080109000EEE07007EDF4FF52B0D1
:0B0E0C008003ED42B0EE6002D2AF2286
:100E1800AC82AD839000F0E0FEA3E0FFBE0003606B
:100E2800121F0F9000EFE08C828D831215D4A3DE81
:080E3800FADFF88C828D8322A1
:100E4000C0D075D00808B8000D09B900090ABA0069
:100E5000050BBB00010CD0D032A2AFC2AFA808A9CD
:100E600009AA0AAB0BAC8A8588F092AF30F51274F0
:100E7000012C600D08B8000909B900050ABA000183
:100E80000BC3EC9406FCECC313FC75F07DE8A4F8EE
:100E9000ADF075F07DE9A42DF9E435F0FD75F07D38
:100EA000EAA42DFAE435F0FD75F07DEBA42DFB7D71
:100EB00000EC28F582E93DF583EA3DF5F0EB3D22B3
:100EC000A2AFC2AFA808A909AA0AAB0BAC0C92AF9B
:100ED00075F020E8A4A8F075F020E9A428F582A810
:100EE000F075F020EAA428F583A8F075F020EBA4B3
:100EF00028F9A8F075F020ECA42889F0228582104A
:100F000085831185F012F513120E5985821485839D
:100F10001585F016F517E5104511451245137001BA
:100F200022A810A911AA12AB1385141885151985CA
:100F3000161A85171BE8494A4B60DBC003C002C084
:100F400001C000120E59AC82AD83AEF0FFD000D0CC
:100F500001D002D003ECC39518FCED9519FDEE9578
:100F60001AFEEF951BFFC3EC94E8ED9403EE94009A
:100F7000EF940040A118B8FF0919B9FF051ABAFF8C
:100F8000011B881089118A128B1374E82518F51833
:100F900074033519F519E4351AF51AE4351BF51BF8
:100FA000851814851915851A16851B178087AE823A
:100FB000AF83C374019EE49F40022200C374029E6B
:100FC000FE74009FFF00BE0005BF0002002200006B
:100FD0000000000000000000000000000000000E03
:100FE000BE00EB0FBF00ED002275A15575A1AA74DC
:100FF000F855B94406F5B975A100901388120FAEE3
:101000001215811215AB12159A75DD0075D3007596
:10101000D500759E5D759D0074F055894402F58973
:0F10200053C9EF758C06C28DD2A9D28CD2AF22E4
:10103000AFDBBF080280030213F0900007E0FE7FE1
:1010400000900006E0FD7C004FF522EC4EF5237F7A
:1010500000900001E0F524900000E0FE5460605331
:10106000900000E0FE5306607D00BE2005BD00023A
:10107000800BBE4039BD00367FFF0213F27420B5ED
:1010800024030213F27421B5240280077422B524CC
:1010900018800C12189EAD82AE838D070213F2C029
:1010A000071218CDD0070213F27FFF0213F27FFF61
:1010B0000213F2E52424F450030213ECE524240B7C
:1010C00083F582E524241083F583E473CEFCECBC25
:1010D000ECC6E4ECD3F0F2F2131113121311101357
:1010E00011111313900003E0FEBE0102800ABE023C
:1010F00002800FBE036080147525FD75261E7F12C9
:10110000805675250F75261F7F46804C900002E0A3
:10111000FE24FB4036EE2E90111B738008800E805B
:1011200014801A802075255575261F801E752591FF
:1011300075261F801675256575261F800E75255925
:1011400075261F800675257B75261F8525828526B9
:1011500083E493FF80027FFFBFFF030213F28F053A
:101160007E00C3ED9522EE952350048D228E23AD93
:1011700022AE23C3ED9408EE9400920040067B0853
:101180007C008004AB22AC238B077C00C3EC9F5017
:10119000198C027B00EC2525F582E43526F583E4E5
:1011A00093F98A828B83F00C80E28F037C00EDC37D
:1011B0009BFDEE9CFE8D228E23EF2525F525E43543
:1011C00026F5260213F2900002E0FE8E227523001F
:1011D0000213F29000F2E0900000F0AD22AE23C3C3
:1011E000ED9401EE940050030213F27F010213F21A
:1011F000900002E0FE9000F2F00213F2900000E096
:10120000541F702F900003E0FD7E00900002E0FC70
:101210007B004206EB4205BE0114BD0011901F1673
:10122000E493FE30E5030213F27FFF0213F27FFF27
:101230000213F2900000E0FE53061F7D00BE02770D
:10124000BD0074900004E0FEBE0102805FBE020299
:101250008049BE03028033BE0402801DBE8102802D
:1012600040BE8202802ABE83028014BE844474BCC5
:1012700055DE4402F5DE0213F253DE730213F274FC
:10128000BC55D64402F5D60213F253D6730213F2BC
:1012900074BC55D44402F5D40213F253D473021330
:1012A000F274BC55D24402F5D20213F253D2730247
:1012B00013F27FFF0213F27FFF0213F2900000E0AF
:1012C000541F702F900003E0FD7E00900002E0FCB0
:1012D0007B004206EB4205BE0114BD0011901F16B3
:1012E000E493FE30E5030213F27FFF0213F27FFF67
:1012F0000213F2900000E0FE53061F7D00BE0205BF
:10130000BD000280030213CA900003E0FD7E00903E
:101310000002E0FC7B004206EB4205EE4D6003025A
:1013200013C6900005E0FD7E00900004E0FC7B0009
:101330004206EB4205BE0106BD00030213BABE021F
:1013400005BD00028060BE0305BD00028044BE04EE
:1013500005BD00028028BE8105BD00028052BE820C
:1013600005BD00028036BE8305BD0002801ABE8422
:1013700051BD004E74BF55DE4403F5DE8074747FAA
:1013800055DE440CF5DE806A74BF55D64403F5D6AD
:101390008060747F55D6440CF5D6805674BF55D402
:1013A0004403F5D4804C747F55D4440CF5D480426A
:1013B00074BF55D24403F5D28038747F55D2440CA3
:1013C000F5D27FFF802C7FFF80287FFF8024900054
:1013D00000E4F0900001F0AD22AE23C3ED9402EEE4
:1013E000940040047F02800AAF2280067FFF8002C3
:1013F0007FFFBFFF077524FF75DCCF22EF24F74086
:10140000068FDD75DCC02275DD0075DCC022740539
:10141000B52402805D7406B52466AE22AF23C3EE08
:101420009408EF9400920140067C087D008004AC93
:1014300022AD237D00C3ED9C50198D027B00ED256C
:1014400025F582E43526F583E493F98A828B83F0CF
:101450000D80E28C037D00EEC39BFEEF9DFF8E228C
:101460008F23EC2525F525E43526F5268CDD63DC78
:101470004022E5E35480FFE5224FF5E375DC0222CC
:1014800075DD0075DC02227420B5240D30DE1012EB
:10149000185975DD0085DCDC2275DD0043DC022295
:1014A00075D30074FC55D24402F5D22220D9030230
:1014B0001557E5D9540FFFADD95305307E00BD0057
:1014C00005BE0002801CBD1005BE00028036BD2096
:1014D00005BE00028043BD3006BE000302153D027A
:1014E0001555EF24FB5003021555EF2F9014F073A0
:1014F000800880618009805D805B121487805612AD
:101500001ABB8051EF24FB404CEF2F90150F7380D6
:101510004480428040803E803CEF24FB4037EF2FE8
:10152000901524738008800B800E80298027121468
:101530000E80221214A0801D121AAD8018EF24FB19
:101540004013EF2F901548738008800980078005AD
:101550008003121030C2D930D81A75DC0275D2124D
:1015600075D41275E300C2DAC2D9C2D89000F2E491
:10157000F012185110DA0122E5DA20E20375D8FFE3
:101580002275E20053E27F43E22975E30053E2BF94
:1015900053D1FB75D18043D1012243E10443E102E1
:1015A00043E10143D81FD2EAD2AF227E007F008EF2
:1015B000EC8FED7E0A7F008EEE8FEF7E147F008E23
:1015C000E48FE575EB0C75D21275D41275EA40758F
:0315D000DC022218
:1015D40020F71130F6138883A88220F509F6A88332
:1015E4007583002280FEF280F5F022AFF0AE83E531
:1015F400829000F5F0EEA3F0EFA3F09000F4E0FF8A
:101604009000F5E0FCA3E0FDA3E0FE8C828D838EC8
:10161400F0121B51FB6018EBB5070280120CBC00E2
:10162400010D9000F5ECF0EDA3F0EEA3F080DC905A
:1016340000F5ECF0EDA3F0EEA3F08C828D838EF038
:10164400121B51B507078C828D838EF02290000007
:1016540075F00022AFF0AE83E5829000FDF0EEA3BA
:10166400F0EFA3F09000FBE0FEA3E0FF4E602F90AC
:1016740000FDE0FBA3E0FCA3E0FD9000F8E0F8A38C
:10168400E0F9A3E0FAC000C001C0028B828C838D14
:10169400F012006B1581158115816002801890008D
:1016A400FDE0F527A3E0F528A3E0F5298527828549
:1016B40028838529F022C006C007882789288A291B
:1016C40085272A85282B85292C8B008C018D07C022
:1016D40000C001C007852A82852B83852CF0120067
:1016E4006B158115811581D007D0065057EE25273B
:1016F400F52FEF3528F530852931EE2BF52AEF3C0F
:10170400F52B8D2C8E2D8F2E152A74FFB52A0215DC
:101714002B152F74FFB52F021530852F828530834A
:101724008531F0121B51FA852A82852B83852CF092
:101734001215D4152D74FFB52D02152EE52D452E49
:1017440070C68037A827A928AA298E2F8F308882AF
:1017540089838AF0121B51FFA3A882A9838B828CF0
:10176400838DF0EF1215D4A3AB82AC83152F74FFD5
:10177400B52F021530E52F453070D39000FDE0FD04
:0D178400A3E0FEA3E0FF8D828E838FF02294
:011791003225
:10179300E582901ED593FFBFFF0475820022759AE0
:1017A3000974FC5580FE74035F4EF580D284208457
:1017B300FD859F8222AF829000ED7401F08F82C07D
:1017C30007120C9CD007900100E0FDA3E0FE4D70D2
:1017D3000A9000EEE4F08F82020DA38D038E047451
:1017E300FF2C500B9000EE7401F08F82020DA3EFDB
:1017F300901E5D93FA24FB4034EA2A90180273800A
:101803002C8006800D8014801B53C6FB439D048DE2
:101813009C2253C6F7439D088D9B2243C604439DD8
:10182300048D9C2243C608439D088D9B22C3EB94E1
:1018330080EC9400500A9000EEE4F08F82020DA336
:0B1843009000EE7401F08F82020DA3F4
:01184F003266
:10185100900157E4F0C202227F00C3E5DB940792B6
:101861000340067D077E008004ADDB7E008F037C94
:1018710000C3EB9DEC64808EF063F08095F0501C0A
:10188100EF2450FDE43401FEEF2400F582E434003E
:10189100F583E0FC8D828E83F00F80BE227F008F66
:1018A100057E00C3ED9407EE9400501CEF2400FD6B
:1018B100E43400FEEF2450F582E43401F583E0FCCA
:1018C1008D828E83F00F80D790000722900002E076
:1018D100FF900159F0E020E033900150E0FCA3E0DB
:1018E100FDA3E0FEA3E0FFBCB022BD041FBE001CAF
:1018F100BF001975E200C2AF75890090C350120F85
:10190100AE90C350120FAE12380080FE227E007FCF
:10191100003002200EBE00010F900005C007C00676
:10192100120FAED006D007C3EE9450EF94C340E13E
:101931007582002275820122752700900159E060AD
:10194100037527018527822220022590015AE0FF95
:10195100601E8FD553D4FCD202BF400F12190EE581
:1019610082600875D50053D4FCD20290015AE4F08C
:1019710022AF82900159E06041C00712190EE58241
:10198100D0077003F5822290015AE0FEBE4000505C
:10199100207D0074402EFEE43DFDEE2414F582ED21
:1019A1003400F583EFF090015AE02401F0758201D3
:1019B10022C007121949D00780BF75820022AFF0FB
:1019C100AE83E582900104F0EEA3F0EFA3F0900165
:1019D10059E07003021A75900102E0FEA3E0FFC313
:1019E100E49E74808FF063F08095F04003021A75D5
:1019F100C007C00612190EE582D006D0077003F5A4
:101A01008222900104E0FBA3E0FCA3E0FDC3E49E7D
:101A110074808FF063F08095F050BC90015AE0FA29
:101A2100BA400050498A017A00744029F9E43AFA2F
:101A3100E92414F9EA3400FA8B828C838DF0121BAD
:101A410051F8A3AB82AC83900104EBF0ECA3F0ED71
:101A5100A3F089828A83E8F090015AE02401F01E04
:101A6100BEFF011F900102EEF0EFA3F0809F12195B
:101A7100490219D875820022900157E0F58222901F
:101A81000157E07003F58222900158E02414F58299
:101A9100E43400F583E0FF900158E004F090015731
:101AA100E014F0E0700353D4F38F822275D50074F3
:101AB100FC55D44402F5D4C2022230DE19900157FC
:101AC100E5DBF0900158E4F0900157E0600874F311
:071AD10055D44408F5D422AE
:101AD90022AF82BF0200503EEF75F002A4245BFDE5
:101AE900740135F0FE900107E0FBA3E0FC8D828EC6
:101AF90083EBF0ECA3F0BF00028005BF0118800B57
:101B0900900109E024FF9288D2A822900109E0FF00
:101B190024FF928AD2AA22AF82BF02005028BF00B6
:101B2900028005BF01088004C2A88002C2AAEF751D
:101B3900F002A4245BFE740135F0FF8E828F83745A
:071B4900D9F0741AA3F02289
:101B510020F71430F6148883A88220F507E6A883BD
:0C1B610075830022E280F7E49322E0226A
:101B6D0090015FE0FF7E000FBF00010E7410C0E01A
:101B7D00E4C0E08F828E83121D4FAE8215811581D8
:101B8D00900160E0FFEEB507012290015FE0240AAD
:101B9D00F582E43401F583E599F090015FEEF022D2
:101BAD0030044A900161E0FF900162E0FEEFB5065E
:101BBD0005A204C20422900162E0241AF582E434E5
:101BCD0001F583E0F599900162E0FF7E000FBF0003
:101BDD00010E7410C0E0E4C0E08F828E83121D4FA1
:0E1BED00AE82AF8315811581900162EEF02269
:101BFB00900163E0FF7E000FBF00010E7410C0E088
:101C0B00E4C0E08F828E83121D4FAE821581158149
:101C1B00900164E0FFEEB5070122900163E0242AF6
:101C2B00F582E43401F583E5C1F0900163EEF02217
:101C3B0030054A900165E0FF900166E0FEEFB506C6
:101C4B0005A205C20522900166E0243AF582E43430
:101C5B0001F583E0F5C1900166E0FF7E000FBF0048
:101C6B00010E7410C0E0E4C0E08F828E83121D4F12
:0E1C7B00AE82AF8315811581900166EEF022D6
:101C8900C01C85811CAE82E583FF33E433FD600906
:101C9900C3E49EFBE49FFC80048E038F04E51C24AF
:101CA900FCF808E633E433FF600FE51C24FCF8C3B5
:101CB900E496FA08E496FE800AE51C24FCF88602FC
:101CC900088606C007C005C002C0068B828C831235
:101CD9001CFFAC82AE8315811581D005D007EF6D4D
:101CE900600DC3E49CFDE49EFF8D828F8380048C8C
:101CF900828E83D01C22C01C85811CAE82AF837C5E
:101D0900007D007B10EF235401FAEE2EFEEF33FF26
:101D1900EC2CFCED33FDEA6003430401E51C24FCD3
:101D2900F8C3EC96ED08964010E51C24FCF8ECC3CA
:101D390096FCED0896FD430601DBCA8E828F83D09F
:101D49001C2275820022C01C85811CAE82E583FF9E
:101D590033E433FD6009C3E49EFBE49FFC80048EF9
:101D6900038F04E51C24FCF808E630E70FE51C2482
:101D7900FCF8C3E496FE08E496FF800AE51C24FCFF
:101D8900F88606088607C005C006C0078B828C83C3
:101D9900121DBDAE82AF8315811581D005ED600D91
:101DA900C3E49EFCE49FFD8C828D8380048E828F28
:101DB90083D01C22C01C85811CAE82AF837D007C30
:101DC90000E51C24FCF808E6235401FB702FE51CF0
:101DD90024FCF8E626F608E633F6E51C24FCF8C3ED
:101DE900EE96EF08965011E51C24FCF808E618C396
:101DF90013C613C608F680050C8C0580C4E51C249F
:101E0900FCF8C3EE96EF0896400DE51C24FCF8EEAD
:101E1900C396FEEF0896FFE51C24FCF808E618C3F4
:101E290013C613C608F68D041DEC70D18E828F83FC
:031E3900D01C2298
:041E3C000040105002
:101E40004348353532204C4344313630320D0A5543
:0D1E5000534220646973706C61790D0A00C3
:101E5D000000000000000000000000000000000174
:101E6D00000000000000000000000000000003045E
:101E7D00000002000000000001010101010101014B
:101E8D000000020202020202020200000303030329
:101E9D000303030300000404040404040404000009
:101EAD0001020408102040800000010204081020E7
:101EBD004080000001020408102040800000010253
:101ECD000408102040800000FFFFFFFFFFFFFFFF11
:101EDD00FFFFFF00FFFF0102FFFFFFFFFFFFFFFFFF
:101EED00FFFFFFFFFFFFFFFF03FFFFFFFFFFFFFFF1
:101EFD0012011001EF020108091250C50101010282
:101F0D000301090246000201008064080B00020271
:101F1D00020104090400000102020104052400105D
:101F2D0001042402020524060001070581030800AF
:101F3D004009040100020A000004070502024000E6
:101F4D000007058202400000040309040C0343004E
:101F5D004800350035007800160343004800350071
:101F6D00350078006400750069006E006F0016037F
:101F7D0043004400430020005300650072006900D7
:101F8D0061006C000E0344006500710069006E0075
:021F9D006700DB
:041F9F00890CFF802A
:021FA30000003C
:0B1FA50000E100000000080000000048
:041FB000D91AD91A47
:041FB4000000000029
:041FB8000000000025
:00000001FF
