:060000000200990217CD79
:03000B00021A7A5C
:03001300021820B0
:01001B0032B2
:030023000217358C
:03002B00021F9120
:01003300329A
:03003B0002187335
:030043000216F6AC
:01004B003282
:0300530002178110
:01005B003272
:03006300021EB3C7
:030066000218C7B6
:02006900E4733E
:10006B00E58124FCC3C8C0E0C082E608467006E503
:10007B00824583601218E58296F58208E5839642E5
:10008B008208E5F0964582D082C8D0E0C8227581FF
:0B009B0038122205E5826003020066B7
:1000A600791DE94400601B7A01902451786575A09A
:1000B60001E493F2A308B8000205A0D9F4DAF275B8
:0200C600A0FF99
:0600C800E478FFF6D8FD0C
:1000CE007800E84400600A799475A000E4F309D83A
:1000DE00FC78D1E84400600C7901900094E4F0A320
:0400EE00D8FCD9FA67
:0200F200C2004A
:0B00F4009000FDE4F0A3F0A3F0A3F0E7
:0E0100007808E4F608F608F608F6780C7600A3
:02010E00C20429
:02011000C20526
:0301120002006682
:1001160090010FE4F075820F1219DD900001121B99
:10012600E890010F7401F075820F1219DD9000013D
:10013600121BE890010FE4F075820F1219DD900092
:1001460064021BE8E5829000BAF0E0FF90010F74AC
:10015600015FF0758221C0071219DDD007EFC313C6
:100166009000BAF0E0FF90010F74015FF075820B0A
:10017600C0071219DDD007EFC3139000BAF0E0FFF5
:1001860090010F74015FF075821FC0071219DDD050
:1001960007EFC3139000BAF0E090010F5401F07519
:1001A600821E1219DD020116E5829000BCF0900055
:1001B600BBE090010FF075820E1219DD9000BCE0D5
:1001C600FFC4540FF582C00712014AD0078F82027E
:1001D600014AE5829000BDF0E0FF9000BBE4F08F9D
:1001E600820201AEE5829000BEF0E0FF9000BB7493
:1001F60001F08F820201AE90011874A4F07400A37E
:10020600F0E4A3F090011B7410F0E4A3F0900094C6
:1002160075F000121CDC900110E4F09001117410CE
:10022600F0E4A3F09000A475F000021A527F00BF1C
:100236000200400122EF9022F693FE4306809000D2
:10024600BBE4F08E82C0071201AED007EF75F01046
:10025600A42494FD740035F0FE8D038E047A00BA52
:1002660010005045EA2DF8E43EF988828983E06063
:100276000EEA2BF582E43CF583E0F87900800478F9
:100286002079009000BB7401F08882C007C006C0C8
:1002960005C004C003C0021201AED002D003D004D0
:1002A600D005D006D0070A80B60F0202359000B8F6
:1002B600E4F09000B7F09000B9F09000B47408F044
:1002C60090010E7401F075820E1218D690010E740C
:1002D60001F075820F1218D690010E7401F0758226
:1002E600211218D690010E7401F075820B1218D6E1
:1002F60090010E7401F075821F1218D690010E74CB
:1003060001F075821E1218D6900032E4F5F0121B29
:100316003790010FE4F075820E1219DD90010FE49B
:10032600F075820F1219DD75820312014A9011943D
:10033600121BE875820312014A901194121BE8758C
:10034600820312014A900096121BE875820212017E
:100356004A9000B4E04420FF9000BBE4F08F821284
:1003660001AE9000B57404F012043E1203859000AD
:10037600B67402F09000BBE4F07582060201AE90FE
:1003860000BBE4F07582011201AE9007D0121BE8A3
:10039600900110E4F09001117420F0E4A3F09000B5
:1003A6009475F000121A529000B8E4F09000B7F07D
:1003B600229000BBE4F07582021201AE9007D012C3
:1003C6001BE89000B8E4F09000B7F022E5829000B8
:1003D600C6F0E0FFBF100040069000C6740FF09014
:1003E60000C5E0FFBF020040069000C57401F09012
:1003F60000C5E0FF9022F693FE9000C6E0FD2E4475
:1004060080FE9000BBE4F08E82C007C0051201AEEC
:10041600D005D0079000B7EDF09000B8EFF022902D
:1004260000B5E053E0FBF09000B5E04408FF900013
:10043600BBE4F08F820201AE9000B5E043E004F029
:100446009000B5E04408FF9000BBE4F08F82020103
:10045600AE9000B5E053E0FDF09000B5E04408FF33
:100466009000BBE4F08F820201AE9000B5E043E05D
:1004760002F09000B5E04408FF9000BBE4F08F82E4
:100486000201AE9000B5E053E0FEF09000B5E04406
:1004960008FF9000BBE4F08F820201AE9000B5E049
:1004A60043E001F09000B5E04408FF9000BBE4F0A3
:1004B6008F820201AE9000BBE4F07582180201AE95
:1004C6009000BBE4F075821C0201AE9000B6E043DA
:1004D600E002F09000B6E04404FF9000BBE4F08F29
:1004E600820201AE9000B6E053E0FDF09000B6E067
:1004F6004404FF9000BBE4F08F820201AE9000B688
:10050600E043E001F09000B6E04404FF9000BBE455
:10051600F08F820201AE9000B6E053E0FEF090004C
:10052600B6E04404FF9000BBE4F08F820201AEE522
:10053600829000D7F0E053E007F09000D7E0C403C4
:1005460054F8FF4307409000BBE4F08F821201AEDF
:100556009000D4E0FDA3E0FEA3E0FF7C00BC080011
:100566005030EC2DF9E43EFA8F0389828A838BF0B2
:1005760012200BF99000BB7401F08982C007C006F7
:10058600C005C0041201AED004D005D006D0070CB9
:1005960080CB229000B97401F0229000B9E0600887
:1005A6009000B9E4F0020233229000B9E0F582220D
:1005B600E5829000DAF0E0FFBF08149000B7E0FE95
:1005C600E0700302071CEE149000B7F002071CBF90
:1005D6000D089000B7E4F002071CBF0A169000B899
:1005E600E0FEBE0200400302071C9000B8EE04F0D5
:1005F60002071CBF0C23900110E4F0900111742037
:10060600F0E4A3F090009475F000121A529000B82E
:10061600E4F09000B7F002071CBF0902800302064F
:10062600C39000B7E0FFBF100040159000B7E4F09C
:100636009000B8E0FFBF020050069000B8EF04F04B
:100646009000B8E0FFBF020040091201FD9000B81B
:100656007401F09000B7E0FFFD7E0074042DFDE408
:100666003EFEC0077404C0E0E4C0E08D828E8312B3
:100676002143AD82AE8315811581D007ED2D25E08E
:10068600FDC39FFF9000B7E0FEBE100040030207C7
:100696001C8F051FED700302071C9000B8E075F073
:1006A60010A42494FC740035F0FD9000B7EE04F01D
:1006B600EE2CF582E43DF5837420F080C79000B7F8
:1006C600E0FFBF100040159000B7E4F09000B8E0DE
:1006D600FFBF020050069000B8EF04F09000B8E0AB
:1006E600FFBF020040091201FD9000B87401F090AE
:1006F60000B8E075F010A42494FE740035F0FF9065
:1007060000B7E0FD04F0ED2EFEE43FFF9000DAE0D6
:10071600FD8E828F83F09000B9E0700302023322CF
:10072600AFF0AE83E5829000DBF0EEA3F0EFA3F02E
:100736009000DBE0FDA3E0FEA3E0FF9000DBE0F528
:10074600F0A3E045F0604E8D828E838FF012200B71
:1007560060439000B97401F08D828E838FF0122071
:100766000BFC60230DBD00010E9000DBEDF0EEA347
:10077600F0EFA3F08C82C007C006C0051205B6D004
:1007860005D006D00780D19000DBEDF0EEA3F0EFA8
:06079600A3F00205A02201
:10079C0012165E12168812167775DD0075D3007569
:1007AC00D5002290016CE4F0C200227F00C3E5DB8F
:1007BC009407920140067D077E008004ADDB7E002D
:1007CC008F037C00C3EB9DEC64808EF063F080950E
:1007DC00F05017EF2465FDE43401FE8F8275830021
:1007EC00E0FC8D828E83F00F80C3227F008F057E0C
:1007FC0000C3ED9407EE940050188F057E00EF2493
:10080C0065F582E43401F583E0FC8D828E83F00F74
:10081C0080DB90000722900002E0FF90016EF0E078
:10082C0020E033900165E0FCA3E0FDA3E0FEA3E033
:10083C00FFBCB022BD041FBE001CBF001975E20036
:10084C00C2AF75890090C350121BE890C350121BA5
:10085C00E812380080FE227E007F003000200EBEA1
:10086C0000010F900005C007C006121BE8D006D08F
:10087C0007C3EE9450EF94C340E175820022758259
:10088C000122752E0090016EE06003752E01852EFD
:10089C00822220002590016FE0FF601E8FD553D47B
:1008AC00FCD200BF400F120863E582600875D500CA
:1008BC0053D4FCD20090016FE4F022AF8290016E11
:1008CC00E06041C007120863E582D0077003F5822F
:1008DC002290016FE0FEBE400050207D0074402E3F
:1008EC00FEE43DFDEE2414F582ED3400F583EFF0CB
:1008FC0090016FE02401F075820122C00712089E5E
:10090C00D00780BF75820022AFF0AE83E5829000E5
:10091C00E0F0EEA3F0EFA3F090016EE0700302099B
:10092C00CA9000DEE0FEA3E0FFC3E49E74808FF06B
:10093C0063F08095F040030209CAC007C006120894
:10094C0063E582D006D0077003F582229000E0E0C8
:10095C00FBA3E0FCA3E0FDC3E49E74808FF063F086
:10096C008095F050BC90016FE0FABA400050498A73
:10097C00017A00744029F9E43AFAE92414F9EA34CA
:10098C0000FA8B828C838DF012200BF8A3AB82AC17
:10099C00839000E0EBF0ECA3F0EDA3F089828A8366
:1009AC00E8F090016FE02401F01EBEFF011F9000E3
:1009BC00DEEEF0EFA3F0809F12089E02092D7582E7
:1009CC00002290016CE0F5822290016CE07003F53E
:1009DC00822290016DE02414F582E43400F583E06A
:1009EC00FF90016DE004F090016CE014F0E07003F6
:1009FC0053D4F38F822275D50074FC55D44402F580
:100A0C00D4C2002230DE1990016CE5DBF090016D50
:100A1C00E4F090016CE0600874F355D44408F5D40C
:010A2C0022A7
:100A2E0075FF0075A15575A1AA43B1012275FF008E
:100A3E0022AFF0AE83E5829000F8F0EEA3F0EFA3C4
:100A4E00F09000FBE4F09000F8E0FDA3E0FEA3E0E0
:100A5E00FF8D828E838FF012200BFAA312200BFBD8
:100A6E00A312200BFC8A828B838CF012200BFCBC11
:100A7E003000405DEC24C640589000FBE075F00A53
:100A8E00A4F08D828E838FF012200BF52EA31220F0
:100A9E000BF52FA312200BF5307401252EF8E4353B
:100AAE002FF9AC308D828E838FF0E8121C58A3E99B
:100ABE00121C58A3EC121C58852E82852F8385306C
:100ACE00F012200B24D0FF9000FBE0FE2FF0020A64
:100ADE00549000FBE0F582227582001216E6E58244
:100AEE009000F3F07582011216E6E5829000F4F0A4
:100AFE007582021216E6E5829000F5F075820312F9
:100B0E0016E6AF829000F6EFF09000F3E0FEBEFF27
:100B1E00299000F4E0FEBEFF219000F5E0FEBEFF3E
:100B2E0019BFFF169000F37440F09000F423F0907C
:100B3E0000F5740AF09000F603F0229000F3E090B6
:100B4E00010DF07582001216B09000F4E090010DC8
:100B5E00F07582011216B09000F5E090010DF0755F
:100B6E0082021216B09000F6E090010DF07582032D
:100B7E000216B0E5829000FCF0E0FFE0700B9001F1
:100B8E000EE4F07582220218D690010E7401F075F3
:100B9E008222C0071218D6D0077E0074FFC39FFFB3
:100BAE00E49EFE900120EFF0EEA3F0758222021E6D
:100BBE00DA12079C120AE69000F4E0FF9000F7F0BC
:100BCE009000F5E0FE7D009000F6E07B002EFEEB3F
:100BDE003DFDC3E49E74808DF063F08095F0500669
:100BEE008F067F0080047E007F008E82120B8112A2
:100BFE0002B39022FA75F080120726020A2E75FFB4
:100C0E00001209CEE5827003020FEA12059912094D
:100C1E00CEE5827003020FCF1209D5AF829001721A
:100C2E00E0FE30E703020FA5EE6003020CE7BF20E3
:100C3E000E75820C1205B690017274FFF080CFBF54
:100C4E0021139000C5E4F07582001203D290017258
:100C5E0074FFF080B9BF2D15120425758200120B9A
:100C6E0081900173E4F090017214F080A1BF2B1AF1
:100C7E0012043E9000F7E0F582120B81900173741E
:100C8E0001F090017274FFF08084BF2A0C120B49A0
:100C9E0090017274FFF0020C1CBF5B028008BF7BD8
:100CAE00028003BF281B900172E0FD04F0ED339526
:100CBE00E0FCED24E3F582EC3400F583EFF0020C5A
:100CCE001C75825CC0071205B6D0078F821205B65E
:100CDE0090017274FFF0020C1C900101E4F0BF3021
:100CEE00004031EF24C6402CEE6480948F501C8E51
:100CFE0005900172EE04F0ED3395E0FEED24E3F580
:100D0E0082EE3400F583EFF0020F7B900101740147
:100D1E00F0020F7BBF2C41900114742CF09000E375
:100D2E0075F000C007121C73AC82AD83AEF0D00715
:100D3E00EC4D701B900172E0FE04F0EE3395E0FD79
:100D4E00EE24E3F582ED3400F583EFF0020F7B9095
:100D5E0001017401F0020F7BBF5D028003020E32AF
:100D6E009001017401F09000E3E0FEBE5B0280038F
:100D7E00020F7B90010274E4F07400A3F0E4A3F080
:100D8E0090010275F000C007120A3FAE82D007BE76
:100D9E0001005003020F7BEE24EF5003020F7B90F5
:100DAE000102E0FBA3E0FCA3E0FD8B828C838DF0BF
:100DBE0012200BFABA2C028003020F7B90010274F0
:100DCE00012BF0E43CA3F0EDA3F090010275F000CE
:100DDE00C007C006120A3FAD82D006D007BD010083
:100DEE005003020F7BED24FD5003020F7B90010296
:100DFE00E0FAA3E0FBA3E0FC8A828B838CF0122046
:100E0E000B6003020F7B1E1D9000C5EDF08E82C09D
:100E1E00071203D2D00790017274FFF0900101E423
:100E2E00F0020F7BBF7D028003020ED89001017489
:100E3E0001F09000E3E0FEBE7B028003020F7B9088
:100E4E00010574E4F07400A3F0E4A3F090010575BD
:100E5E00F000C007120A3FAE82D007900105E0FBFA
:100E6E00A3E0FCA3E0FD8B828C838DF012200BFAA5
:100E7E00BA2C028003020F7B90010574012BF0E463
:100E8E003CA3F0EDA3F090010575F000C007C0067D
:100E9E00120A3FAD82D006D007900105E0FAA3E01A
:100EAE00FBA3E0FC8A828B838CF012200B60030282
:100EBE000F7B9000F5EEF09000F6EDF0900172745D
:100ECE00FFF0900101E4F0020F7BBF2902800302C4
:100EDE000F759001017401F09000E3E0FEBE280250
:100EEE008003020F7B90010874E4F07400A3F0E419
:100EFE00A3F090010875F000C007120A3FAE82D031
:100F0E0007900108E0FBA3E0FCA3E0FD8B828C833D
:100F1E008DF012200BFABA2C5490010874012BF0AC
:100F2E00E43CA3F0EDA3F090010875F000C007C0FB
:100F3E0006120A3FAD82D006D007900108E0FAA350
:100F4E00E0FBA3E0FC8A828B838CF012200B701DD9
:100F5E009000F3EEF09000F4EDF090017274FFF05B
:100F6E00900101E4F080069001017401F0900101FE
:100F7E00E07003020C1C75825CC0071205B690006F
:100F8E00E375F000120726D0078F821205B6900186
:100F9E007274FFF0020C1CBF5C1F900110E4F09005
:100FAE0001117410F0E4A3F09000E375F000121A32
:100FBE0052900172E4F0020C1C8F821205B6020CE4
:100FCE001C1205A0121AFAAC82AD83AEF0FF90008F
:100FDE00FDECF0EDA3F0EEA3F0EFA3F0900173E0C3
:100FEE007001229000F4E090010BF09000F5E0FF0C
:100FFE007E009000F6E0FD7C002FFFEC3EFEC3E489
:10100E009F74808EF063F08095F040030210E01222
:10101E001AFAAC82AD83AEF0FF9000FDE0F8A3E0CB
:10102E00F9A3E0FAA3E0FBECC398FCED99FDEE9A70
:10103E00FEEF9BFF9000F6E0FBE0604E9000F5E0C7
:10104E00F97A008B007B00E829F9EB3AFAC007C069
:10105E0006C005C004C001C0029003E8121E15AA06
:10106E0082AB8315811581D004D005D006D0078AB6
:10107E0000EBF93395E0FAFBC3E89CE99DEA9EEBA1
:10108E009F500790010BE4F080489000F5E0FBE0E4
:10109E0060407A00C007C006C005C004C003C0028D
:1010AE009003E8121E15AA82AB8315811581D00418
:1010BE00D005D006D0078A00EBF93395E0FAFBC3D2
:1010CE00E89CE99DEA9EEB9F50089000F3E09001AA
:1010DE000BF09000F7E0FF90010BE0FEEFB506017C
:0B10EE00229000F7EEF08E82020B81D2
:1010FA00AFDBBF080280030214CD900007E0FE7F39
:10110A0000900006E0FD7C004FF510EC4EF5117FD3
:10111A0000900001E0F512900000E0FE5460605378
:10112A00900000E0FE5306607D00BE2005BD00026F
:10113A00800BBE4039BD00367FFF0214CF7420B544
:10114A0012030214CF7421B5120280077422B51259
:10115A0018800C1207F7AD82AE838D070214CFC038
:10116A0007120822D0070214CF7FFF0214CF7FFF95
:10117A000214CFE51224F450030214C9E512240B19
:10118A0083F582E512241083F583E473ABD9C999F8
:10119A00C9A3AEC9B0CDCFCF1412141314121114AF
:1011AA0012121414900003E0FEBE0102800ABE026D
:1011BA0002800FBE037380147513177514237F12F0
:1011CA0080697513297514237F46805F900002E0B9
:1011DA00700875136F7514238044900002E0FEBEF8
:1011EA0001087513A37514238034900002E0FEBE33
:1011FA00020875137F7514238024900002E0FEBE56
:10120A0003087513737514238014900002E0FEBE60
:10121A00040875138D75142380047FFF800D8513D0
:10122A0082851483E493FF80027FFFBFFF030214C9
:10123A00CF8F057E00C3ED9510EE951150048D10E9
:10124A008E11AD10AE11C3ED9408EE9400920240D7
:10125A00067B087C008004AB10AC118B077C00C3B2
:10126A00EC9F50198C027B00EC2513F582E43514AF
:10127A00F583E493F98A828B83F00C80E28F037CF6
:10128A0000EDC39BFDEE9CFE8D108E11EF2513F52C
:10129A0013E43514F5140214CF900002E0FE8E1008
:1012AA007511000214CF90010CE0900000F0AD100F
:1012BA00AE11C3ED9401EE940050030214CF7F01E6
:1012CA000214CF900002E0FE90010CF00214CF90BD
:1012DA000000E0541F702F900003E0FD7E00900094
:1012EA0002E0FC7B004206EB4205BE0114BD001180
:1012FA00902330E493FE30E5030214CF7FFF0214FB
:10130A00CF7FFF0214CF900000E0FE53061F7D003E
:10131A00BE0277BD0074900004E0FEBE0102805F49
:10132A00BE02028049BE03028033BE0402801DBE93
:10133A0081028040BE8202802ABE83028014BE845B
:10134A004474BC55DE4402F5DE0214CF53DE730248
:10135A0014CF74BC55D64402F5D60214CF53D673B3
:10136A000214CF74BC55D44402F5D40214CF53D41A
:10137A00730214CF74BC55D24402F5D20214CF536F
:10138A00D2730214CF7FFF0214CF7FFF0214CF90D3
:10139A000000E0541F702F900003E0FD7E009000D3
:1013AA0002E0FC7B004206EB4205BE0114BD0011BF
:1013BA00902330E493FE30E5030214CF7FFF02143A
:1013CA00CF7FFF0214CF900000E0FE53061F7D007E
:1013DA00BE0205BD000280030214A7900003E0FDCF
:1013EA007E00900002E0FC7B004206EB4205EE4DD7
:1013FA0060030214A3900005E0FD7E00900004E063
:10140A00FC7B004206EB4205BE0106BD0003021446
:10141A0097BE0205BD00028060BE0305BD000280C2
:10142A0044BE0405BD00028028BE8105BD000280BD
:10143A0052BE8205BD00028036BE8305BD00028011
:10144A001ABE8451BD004E74BF55DE4403F5DE80DA
:10145A0074747F55DE440CF5DE806A74BF55D64439
:10146A0003F5D68060747F55D6440CF5D680567441
:10147A00BF55D44403F5D4804C747F55D4440CF53D
:10148A00D4804274BF55D24403F5D28038747F5554
:10149A00D2440CF5D27FFF802C7FFF80287FFF800B
:1014AA0024900000E4F0900001F0AD10AE11C3EDFD
:1014BA009402EE940040047F02800AAF1080067FF7
:1014CA00FF80027FFFBFFF077512FF75DCCF22EF97
:1014DA0024F740068FDD75DCC02275DD0075DCC09F
:1014EA00227405B51202805D7406B51266AE10AF9D
:1014FA0011C3EE9408EF9400920340067C087D0025
:10150A008004AC10AD117D00C3ED9C50198D027B97
:10151A0000ED2513F582E43514F583E493F98A8204
:10152A008B83F00D80E28C037D00EEC39BFEEF9D62
:10153A00FF8E108F11EC2513F513E43514F5148C76
:10154A00DD63DC4022E5E35480FFE5104FF5E375E7
:10155A00DC022275DD0075DC02227420B5120D3022
:10156A00DE101207B775DD0085DCDC2275DD00436D
:10157A00DC022275D30074FC55D24402F5D2222033
:10158A00D903021634E5D9540FFFADD95305307E7D
:10159A0000BD0005BE0002801CBD1005BE00028011
:1015AA0036BD2005BE00028043BD3006BE000302E0
:1015BA00161A021632EF24FB5003021632EF2F904E
:1015CA0015CD73800880618009805D805B12156487
:1015DA008056120A108051EF24FB404CEF2F9015D1
:1015EA00EC73804480428040803E803CEF24FB4084
:1015FA0037EF2F901601738008800B800E802980A8
:10160A00271214EB802212157D801D120A028018FF
:10161A00EF24FB4013EF2F90162573800880098072
:10162A0007800580031210FAC2D930D81A75DC0275
:10163A0075D21275D41275E300C2DAC2D9C2D89033
:10164A00010CE4F01207AF10DA0122E5DA20E20316
:10165A0075D8FF2275E20053E27F43E22975E30061
:10166A0053E2BF53D1FB75D18043D1012243E10438
:10167A0043E10243E10143D81FD2EAD2AF227E00FE
:10168A007F008EEC8FED7E0A7F008EEE8FEF7E1448
:10169A007F008EE48FE575EB0C75D21275D4127546
:1016AA00EA4075DC0222AF82BF800040012275A1A8
:1016BA005575A1AA43B10475A1007585C0EF2FF530
:1016CA008490010DE0F58EE58630E60375869A75FD
:1016DA00A15575A1AA53B1FB75A10022AF827585E8
:0C16EA00C0EF2FF58475868E858E82225D
:1016F600C021C0E0C0F0C082C083C007C006C005DC
:10170600C004C003C002C001C000C0D075D0001222
:101716001589D0D0D000D001D002D003D004D00596
:10172600D006D007D083D082D0F0D0E0D02132C00E
:1017360021C0E0C0F0C082C083C007C006C005C09B
:1017460004C003C002C001C000C0D075D0003098EC
:1017560005122027C298309905122067C299D0D069
:10176600D000D001D002D003D004D005D006D007D7
:10177600D083D082D0F0D0E0D02132C021C0E0C0EA
:10178600F0C082C083C007C006C005C004C003C045
:1017960002C001C000C0D075D00030C0051220B50F
:1017A600C2C030C1051220F5C2C1D0D0D000D001D0
:1017B600D002D003D004D005D006D007D083D08283
:1017C600D0F0D0E0D02132C021C0E0C0F0C082C04D
:1017D60083C007C006C005C004C003C002C001C064
:1017E60000C0D075D000900176E0FEA3E0FFC007F0
:1017F600C0068E828F83120069D006D007D0D0D063
:1018060000D001D002D003D004D005D006D007D036
:1018160083D082D0F0D0E0D02132C021C0E0C0F029
:10182600C082C083C007C006C005C004C003C00292
:10183600C001C000C0D075D000900178E0FEA3E0E2
:10184600FFC007C0068E828F83120069D006D007BC
:10185600D0D0D000D001D002D003D004D005D0061D
:10186600D007D083D082D0F0D0E0D02132C021C0C2
:10187600E0C0F0C082C083C007C006C005C004C077
:1018860003C002C001C000C0D075D000900174E052
:10189600FEA3E04E600E900174E0F8A3E0F58388A5
:1018A60082120069D0D0D000D001D002D003D0047B
:1018B600D005D006D007D083D082D0F0D0E0D0219A
:1018C60032121C23120BBF120C0C80FB75820022F5
:1018D600E582FF90240193FEEF9023D993FF7001D8
:1018E6002290010EE0FD701BBF0209EEF4FC52923D
:1018F600EC529322BF0402800122EEF4FC5296ECD5
:10190600529722BD0214BF0207EE4292EE42932284
:10191600BF0439EE4296EE429722BD0116BF020879
:10192600EEF45292EE429322BF0421EEF45296EE6A
:10193600429722BD0316BF0208EE4292EEF452937E
:1019460022BF0408EE4296EEF4FE529722AF82BF03
:101956000102800FBF02028013BF03028017BF047B
:1019660025801BE5C620E21E539DFB22E5C620E32B
:1019760015539DF722E5C630E20C539DFB22E5C6C2
:1019860030E303539DF722E582FF9023B193FEEFE8
:1019960090240193FDEF9023D993FF7003F58222E3
:1019A600EE600D8E82C007C005121953D005D00710
:1019B6007E00BF0202800ABF03028009BF040C80BA
:1019C60008AE908006AEA08002AEB0ED5E600475F3
:1019D60082012275820022E582FF9023B193FEEFF9
:1019E60090240193FDEF9023D993FFEE600D8E8234
:1019F600C007C005121953D005D007A2AFE433FEC5
:101A0600C2AFBF0202800ABF03028017BF0436803E
:101A16002490010FE07007EDF4FF52908027ED420D
:101A260090802290010FE07007EDF4FF52A0801520
:101A3600ED42A0801090010FE07007EDF4FF52B068
:0B1A46008003ED42B0EE6002D2AF2240
:101A5200AC82AD83900111E0FEA3E0FFBE00036003
:101A6200121F0F900110E08C828D83121C58A3DE8E
:081A7200FADFF88C828D83225B
:101A7A00C0D075D00808B8000D09B900090ABA0023
:101A8A00050BBB00010CD0D032A2AFC2AFA808A987
:101A9A0009AA0AAB0BAC8A8588F092AF30F51274AA
:101AAA00012C600D08B8000909B900050ABA00013D
:101ABA000BC3EC9406FCECC313FC75F07DE8A4F8A8
:101ACA00ADF075F07DE9A42DF9E435F0FD75F07DF2
:101ADA00EAA42DFAE435F0FD75F07DEBA42DFB7D2B
:101AEA0000EC28F582E93DF583EA3DF5F0EB3D226D
:101AFA00A2AFC2AFA808A909AA0AAB0BAC0C92AF55
:101B0A0075F020E8A4A8F075F020E9A428F582A8C9
:101B1A00F075F020EAA428F583A8F075F020EBA46C
:101B2A0028F9A8F075F020ECA42889F022858222F1
:101B3A0085832385F024F525121A938582268583C9
:101B4A002785F028F529E5224523452445257001F6
:101B5A0022A822A923AA24AB2585262A85272B85F4
:101B6A00282C85292DE8494A4B60DBC003C002C0F6
:101B7A0001C000121A93AC82AD83AEF0FFD000D040
:101B8A0001D002D003ECC3952AFCED952BFDEE950E
:101B9A002CFEEF952DFFC3EC94E8ED9403EE940030
:101BAA00EF940040A118B8FF0919B9FF051ABAFF46
:101BBA00011B882289238A248B2574E8252AF52A81
:101BCA007403352BF52BE4352CF52CE4352DF52D46
:101BDA00852A26852B27852C28852D298087AE8264
:101BEA00AF83C374019EE49F40022200C374029E25
:101BFA00FE74009FFF00BE0005BF00020022000025
:101C0A000000000000000000000000000000000EBC
:101C1A00BE00EB0FBF00ED002275A15575A1AA7495
:101C2A00F855B94406F5B975A100901388121BE856
:101C3A00759E5D759D0074F055894402F58953C9F6
:0D1C4A00EF758C06C28DD2A9D28CD2AF22CC
:101C580020F71130F6138883A88220F509F6A883A7
:101C68007583002280FEF280F5F022AFF0AE83E5A6
:101C780082900115F0EEA3F0EFA3F0900114E0FFBD
:101C8800900115E0FCA3E0FDA3E0FE8C828D838E1D
:101C9800F012200BFB6018EBB5070280120CBC0099
:101CA800010D900115ECF0EDA3F0EEA3F080DC90AF
:101CB8000115ECF0EDA3F0EEA3F08C828D838EF08D
:101CC80012200BB507078C828D838EF022900000BE
:101CD80075F00022AFF0AE83E58290011DF0EEA30F
:101CE800F0EFA3F090011BE0FEA3E0FF4E602F9001
:101CF800011DE0FBA3E0FCA3E0FD900118E0F8A3C0
:101D0800E0F9A3E0FAC000C001C0028B828C838D89
:101D1800F012006B15811581158160028018900101
:101D28001DE0F52EA3E0F52FA3E0F530852E828582
:101D38002F838530F022C006C007882E892F8A306D
:101D4800852E31852F328530338B008C018D07C06D
:101D580000C001C0078531828532838533F01200C7
:101D68006B158115811581D007D0065057EE252EA9
:101D7800F536EF352FF537853038EE2BF531EF3C5A
:101D8800F5328D338E348F35153174FFB531021528
:101D980032153674FFB53602153785368285378396
:101DA8008538F012200BFA8531828532838533F02D
:101DB800121C58153474FFB534021535E534453511
:101DC80070C68037A82EA92FAA308E368F37888202
:101DD80089838AF012200BFFA3A882A9838B828CA7
:101DE800838DF0EF121C58A3AB82AC83153674FFB9
:101DF800B536021537E536453770D390011DE0FD3D
:101E0800A3E0FEA3E0FF8D828E838FF022C01585AC
:101E18008115C082C083E5812405F581AF150FE5E2
:101E2800152403F8A607087600087640E51524FC73
:101E3800FD7E007F40E5152406F9A815088604E50F
:101E48001524FCF886038CF0EBA4F709A7F0E51538
:101E5800240604F98704A81508860374012DFAE4FA
:101E68003EFE8A828E838FF012200B8BF0A4FBE556
:101E7800152403F8740126FDE40836FE0886078D4C
:101E8800828E838FF012200BFDE51524FCF886075F
:101E98008DF0EFA42B2CF7E5152406F987060987A2
:0C1EA800078E828F83851581D0152232B1
:101EB500E58290242993FFBFFF0475820022759A5D
:101EC5000974FC5580FE74035F4EF580D28420842E
:101ED500FD859F8222AF8290010E7401F08F82C032
:101EE500071218D6D007900120E0FDA3E0FE4D7043
:101EF5000A90010FE4F08F820219DD8D038E0474C0
:101F0500FF2C500B90010F7401F08F820219DDEF49
:101F15009023B193FA24FB4054EA2A901F2473803E
:101F25004C800680158024803353C6FB439D0443B3
:101F35009D10E59D30E4FB8D9C2253C6F7439D081B
:101F4500439D10E59D30E4FB8D9B2243C604439DD4
:101F550004439D10E59D30E4FB8D9C2243C6084358
:101F65009D08439D10E59D30E4FB8D9B22C3EB94BA
:101F750080EC9400500A90010FE4F08F820219DD85
:0B1F850090010F7401F08F820219DD43
:011F9100321D
:101F930022AF82BF0200503EEF75F002A42476FD0B
:101FA300740135F0FE900122E0FBA3E0FC8D828EEC
:101FB30083EBF0ECA3F0BF00028005BF0118800B98
:101FC300900124E024FF9288D2A822900124E0FF0C
:101FD30024FF928AD2AA22AF82BF02005028BF00F8
:101FE300028005BF01088004C2A88002C2AAEF755F
:101FF300F002A42476FE740135F0FF8E828F837481
:0720030093F0741FA3F0220B
:10200B0020F71430F6148883A88220F507E6A883FE
:0C201B0075830022E280F7E49322E022AB
:1020270090017AE0FF7E000FBF00010E7410C0E040
:10203700E4C0E08F828E83122209AE82158115815A
:1020470090017BE0FFEEB507012290017AE024259D
:10205700F582E43401F583E599F090017AEEF022F8
:1020670030044A90017CE0FF90017DE0FEEFB50669
:1020770005A204C2042290017DE02435F582E434F0
:1020870001F583E0F59990017DE0FF7E000FBF0029
:10209700010E7410C0E0E4C0E08F828E8312220923
:0E20A700AE82AF831581158190017DEEF0228F
:1020B50090017EE0FF7E000FBF00010E7410C0E0AE
:1020C500E4C0E08F828E83122209AE8215811581CC
:1020D50090017FE0FFEEB507012290017EE02445E7
:1020E500F582E43401F583E5C1F090017EEEF0223E
:1020F50030054A900180E0FF900181E0FEEFB506D2
:1021050005A205C20522900181E02455F582E4343B
:1021150001F583E0F5C1900181E0FF7E000FBF006E
:10212500010E7410C0E0E4C0E08F828E8312220994
:0E213500AE82AF8315811581900181EEF022FC
:10214300C015858115AE82E583FF33E433FD600955
:10215300C3E49EFBE49FFC80048E038F04E51524F7
:10216300FCF808E633E433FF600FE51524FCF8C3FD
:10217300E496FA08E496FE800AE51524FCF8860244
:10218300088606C007C005C002C0068B828C831276
:1021930021B9AC82AE8315811581D005D007EF6DCF
:1021A300600DC3E49CFDE49EFF8D828F8380048CCD
:1021B300828E83D01522C015858115AE82AF837CB4
:1021C300007D007B10EF235401FAEE2EFEEF33FF68
:1021D300EC2CFCED33FDEA6003430401E51524FC1C
:1021E300F8C3EC96ED08964010E51524FCF8ECC313
:1021F30096FCED0896FD430601DBCA8E828F83D0E1
:10220300152275820022C015858115AE82E583FFF4
:1022130033E433FD6009C3E49EFBE49FFC80048E3A
:10222300038F04E51524FCF808E630E70FE51524D1
:10223300FCF8C3E496FE08E496FF800AE51524FC47
:10224300F88606088607C005C006C0078B828C8304
:10225300122277AE82AF8315811581D005ED600D13
:10226300C3E49EFCE49FFD8C828D8380048E828F69
:1022730083D01522C015858115AE82AF837D007C86
:1022830000E51524FCF808E6235401FB702FE5153F
:1022930024FCF8E626F608E633F6E51524FCF8C335
:1022A300EE96EF08965011E51524FCF808E618C3DE
:1022B30013C613C608F680050C8C0580C4E51524E7
:1022C300FCF8C3EE96EF0896400DE51524FCF8EEF6
:1022D300C396FEEF0896FFE51524FCF808E618C33D
:1022E30013C613C608F68D041DEC70D18E828F833E
:0322F300D01522E1
:0422F6000040105044
:1022FA004348353532204C4344313630320D0A5585
:0D230A00534220646973706C61790D0A0004
:1023170012011001EF020108091250C50101010263
:102327000301090246000201008064080B00020253
:10233700020104090400000102020104052400103F
:102347000104240202052406000107058103080091
:102357004009040100020A000004070502024000C8
:102367000007058202400000040309040C03430030
:1023770048003500350078000E0355005300420031
:102387004C00430044001603430044004300200070
:10239700530065007200690061006C000E034E0077
:0A23A7006F0062006F00640079000F
:1023B100000000000000000000000000000000011B
:1023C1000000000000000000000000000000030405
:1023D10000000200000000000101010101010101F2
:1023E10000000202020202020202000003030303D0
:1023F10003030303000004040404040404040000B0
:10240100010204081020408000000102040810208D
:1024110040800000010204081020408000000102F9
:102421000408102040800000FFFFFFFFFFFFFFFFB7
:10243100FFFFFF00FFFF0102FFFFFFFFFFFFFFFFA5
:10244100FFFFFFFFFFFFFFFF03FFFFFFFFFFFFFF97
:0B24510000E100000000080000000097
:04245C00C718FF019D
:0224600000007A
:04246200931F931F12
:042466000000000072
:04246A00000000006E
:00000001FF
